:02000004F90001
:1000000097110000938101C423A00182732540F160
:1000100015C503A5018275DD0F0020020F10000039
:1000200083A7C181014581450146828723AEA18016
:100030000F001001054523A0A18282801381019346
:1000400013850181938501811386C18163FAC500FF
:100050008322050023A0550011059105E3EAC5FEA2
:100060001385C181938581826377B50023200500C4
:0E0070001105E36DB5FEBD2EBD2601A08280F8
:10007E00DC451CC59C41FD17D8412207D98F9845F8
:10008E004207D98F5CC58280B7470F00938707243C
:10009E00B3D5F502B167E1173E961C423385A50232
:1000AE003E951C42B307F540E3DD07FE8280011149
:1000BE0006CEA1473EC002C202C49307100A3EC636
:1000CE008A85370501E86D37F24005618280484127
:1000DE00420541818280484141818280411106C69C
:1000EE0022C426C22A84AE842285D53775DD93E4D8
:1000FE00041004C0B2402244924441018280411156
:10010E0006C622C42A842285D93775DD93070020BE
:10011E001CC02285C93775DD08401375F50FB24036
:10012E00224441018280411106C622C426C22A847D
:10013E00AE842285693F75DD856793870788DD8CE0
:10014E0004C0B2402244924441018280411106C64D
:10015E0022C426C22A84AE842285953F75DD85672A
:10016E0093870780DD8C04C0B24022449244410143
:10017E0082809C41D8410607D98F98451207D98FA6
:10018E001CC5DC451CD19C495CD1DC491CD59C4D61
:10019E005CD58280411106C622C42A843706B0F887
:1001AE00B7D5F008938505180545F93D2285053725
:1001BE0093070010E31CF5FEB240224441018280F9
:1001CE00411106C68D37B24041018280411106C6EB
:1001DE00B53FB24041018280797106D622D42A847D
:1001EE0002C202C402C689473EC815473ACA3ECC6F
:1001FE009D473ECE4C00B53F2285693FB2502254FA
:10020E0045618280411106C622C426C22A84AE846C
:10021E00E137A68522855D3FB240224492444101DA
:10022E008280411106C69305B00A4D3DB240410190
:10023E008280411106C69307D009630CF60093071E
:10024E00200C6315F6009305900E493DB240410116
:10025E008280930590025935D5BF411106C622C43E
:10026E0026C24AC02A84AE84A13F93050009228586
:10027E00B535814522859D3581452285853581455A
:10028E002285A93D2285A53D2A893706B0F8B7D526
:10029E00F008938505181305C012FD33A685228537
:1002AE0035372285C53DA6852285193F4A86A68506
:1002BE0022854137A6852285113F2285E13DB24038
:1002CE0022449244024941018280411106C622C451
:1002DE0026C22A84AE84ED352285A137A6852285D5
:1002EE00F5352285453D3706B0F8B7D5F00893852C
:1002FE00051813054006493BB24022449244410181
:10030E008280011106CE22CC26CA4AC84EC62A8940
:10031E00AE843284B689AD45D13393D5040193F5BD
:10032E00F50F4A85653B93D5840093F5F50F4A8505
:10033E00753393F5F40F4A85553381454A85793BDC
:10034E00814463F934014A855D3B2300A400850492
:10035E000504C5BFF2406244D2444249B249056128
:10036E008280011106CE22CC26CA4AC84EC652C47D
:10037E002A84AE843289B6893A8A9935D2864E86D7
:10038E00CA852285BD3FA68522858935F240624405
:10039E00D2444249B249224A05618280411106C6C1
:1003AE008145370503E8B93D8145370503E8313FFF
:1003BE008145370503E85535370700028566370650
:1003CE0060008145370503E8693F05658939856712
:1003DE008297B24041018280411106C6C9397D3FE4
:1003EE00B24041018280411122C44AC01384E1808F
:1003FE001389E1803309894006C626C21359294064
:10040E006309090081441C40850411048297E31C92
:10041E0099FE1384E1801389E180330989401359D1
:10042E0029406309090081441C4085041104829708
:10043E00E31C99FEB240224492440249410182805B
:0C044E00000000000000000000000000A2
:04000005F9000000FE
:00000001FF
