:02000004F90001
:1000000097110000938181E813818192138501810A
:10001000938501811386C18163FCC500832205009D
:1000200023A055001305450093854500E3E8C5FE70
:100030001385C181938501826378B5002320050073
:1000400013054500E36CB5FEEF00C05CEF00005BFC
:080050006F0000006780000052
:10005800B7470F0093870724B3D5F502B7C7000049
:10006800938787FF3306F600832706003385A502AA
:100078003305F50083270600B307F540E3DC07FEE8
:100088006780000003254500131505011355050178
:1000980067800000032545001355050167800000AF
:1000A800130101FF2326110023248100232291003C
:1000B800130405009384050013050400EFF09FFC6A
:1000C800E30C05FE93E40410232094008320C10070
:1000D800032481008324410013010101678000008B
:1000E800130101FF232611002324810013040500B6
:1000F80013050400EFF01FF9E30C05FE9307002039
:100108002320F40013050400EFF0DFF8E30C05FEEC
:10011800032504001375F50F8320C1000324810013
:100128001301010167800000130101FF232611005C
:1001380023248100232291001304050093840500E1
:1001480013050400EFF01FF4E30C05FEB7170000D9
:1001580093870788B3E4F400232094008320C10028
:1001680003248100832441001301010167800000FA
:10017800130101FF2326110023248100232291006B
:10018800130405009384050013050400EFF09FEFA6
:10019800E30C05FEB717000093870780B3E4F4006B
:1001A800232094008320C10003248100832441007C
:1001B800130101016780000083A7050003A745001C
:1001C80013171700B3E7E70003A7850013174700C5
:1001D800B3E7E7002324F50083A7C5002320F50231
:1001E80083A705012322F50283A745012324F502ED
:1001F80083A785012326F50267800000130101FF0C
:100208002326110023248100130405003706B0F8C3
:10021800B7E5F5059385051013051000EFF05FE3CA
:1002280013050400EFF01FE693070010E31AF5FE2C
:100238008320C100032481001301010167800000AD
:10024800130101FF23261100EFF01FEE8320C100E8
:100258001301010167800000130101FF232611002B
:10026800EFF01FF18320C100130101016780000036
:10027800130101FD23261102232481021304050022
:1002880023220100232401002326010093072000D4
:100298002328F10013075000232AE100232CF10042
:1002A80093077000232EF10093054100EFF0DFF073
:1002B80013050400EFF09FF48320C1020324810298
:1002C8001301010367800000130101FF23261100B9
:1002D8002324810023229100130405009384050040
:1002E800EFF01FF99385040013050400EFF0DFF623
:1002F8008320C100032481008324410013010101EC
:1003080067800000130101FF232611009305B00A3E
:10031800EFF01FD98320C10013010101678000009D
:10032800130101FF232611009307D0096300F60289
:100338009307200C6316F6009305900EEFF05FD636
:100348008320C1001301010167800000930590021A
:10035800EFF01FD56FF0DFFE130101FF2326110018
:100368002324810023229100232021011304050066
:1003780093840500EFF0DFEC9305000913050400F2
:10038800EFF01FD29305000013050400EFF05FD1D2
:100398009305000013050400EFF09FD093050000BB
:1003A80013050400EFF0DFCF13050400EFF05FD36F
:1003B800130905003706B0F8B7E5F505938505106C
:1003C8001305C012EFF0DFC893850400130504007D
:1003D800EFF09FE813050400EFF05FE29385040057
:1003E80013050400EFF0DFE5130609009385040008
:1003F80013050400EFF0DFF29385040013050400F1
:10040800EFF09FE513050400EFF05FDF8320C100E4
:100418000324810083244100032901001301010101
:1004280067800000130101FF2326110023248100A7
:10043800232291001304050093840500EFF05FE088
:1004480013050400EFF01FEC938504001305040066
:10045800EFF09FE013050400EFF05FDA3706B0F81D
:10046800B7E5F5059385051013054006EFF05FBE67
:100478008320C1000324810083244100130101016A
:1004880067800000130101FE232E1100232C810038
:10049800232A91002328210123263101130905006D
:1004A8009384050013040600938906009305B000A1
:1004B800EFF01FBF93D5040193F5F50F130509005D
:1004C800EFF01FBE93D5840093F5F50F13050900CF
:1004D800EFF01FBD93F5F40F13050900EFF05FBCB3
:1004E8009305000013050900EFF09FBB930400007B
:1004F80063FE340113050900EFF09FBE2300A4003A
:1005080093841400130414006FF09FFE8320C1012C
:100518000324810183244101032901018329C100A6
:100528001301010267800000130101FE232E110050
:10053800232C8100232A910023282101232631011D
:1005480023244101130405009384050013090600C0
:1005580093890600130A0700EFF09FCE93060A005E
:10056800138609009305090013050400EFF09FF1B5
:100578009385040013050400EFF01FCE8320C1010A
:100588000324810183244101032901018329C10036
:10059800032A81001301010267800000130101FF93
:1005A8002326110093050000374501F8EFF0DFD14D
:1005B80093050000374501F8EFF0DFE693050000EA
:1005C800374501F8EFF05FD937070001B71600008B
:1005D8003706380093050000374501F8EFF0DFF4DF
:1005E800B7170000E78007008320C100130101014D
:1005F80067800000130101FF23261100EFF01FFAA6
:100608008320C1001301010167800000130101FF6D
:10061800232481002320210113840181138901816E
:1006280033098940232611002322910013592940B8
:10063800630E0900930400008327040093841400C8
:1006480013044400E7800700E31899FE138401812E
:10065800138901813309894013592940630E090020
:1006680093040000832704009384140013044400B7
:10067800E7800700E31899FE8320C1000324810066
:100688008324410003290100130101016780000050
:0A0698000000000000000000000058
:04000005F9000000FE
:00000001FF
