:02000004F90001
:1000000097110000938181E923A00182732540F1BB
:10001000630E050203A50182E30E05FE0F00200218
:100020000F10000083A7C181130500009305000095
:10003000130600006780070023AEA1800F001001A7
:100040001305100023A0A182678000001381819214
:1000500013850181938501811386C18163FCC500ED
:100060008322050023A05500130545009385450014
:10007000E3E8C5FE1385C181938581826378B5006D
:100080002320050013054500E36CB5FEEF00805901
:0C009000EF0080576F0000006780000048
:10009C0083A7C5002324F50083A705009387F7FFEA
:1000AC0003A7450013178700B3E7E70003A78500F4
:1000BC0013170701B3E7E7002326F500678000005C
:1000CC00B7470F0093870724B3D5F502B7C70000D5
:1000DC00938787FF3306F600832706003385A50236
:1000EC003305F50083270600B307F540E3DC07FE74
:1000FC006780000003254500131505011355050104
:10010C00678000000325450013550501678000003A
:10011C00130101FF232611002324810023229100C7
:10012C00130405009384050013050400EFF09FFCF5
:10013C00E30C05FE93E40410232094008320C100FB
:10014C000324810083244100130101016780000016
:10015C00130101FF23261100232481001304050041
:10016C0013050400EFF01FF9E30C05FE93070020C4
:10017C002320F40013050400EFF0DFF8E30C05FE78
:10018C00032504001375F50F8320C100032481009F
:10019C001301010167800000130101FF23261100E8
:1001AC00232481002322910013040500938405006D
:1001BC0013050400EFF01FF4E30C05FEB717000065
:1001CC0093870788B3E4F400232094008320C100B4
:1001DC000324810083244100130101016780000086
:1001EC00130101FF232611002324810023229100F7
:1001FC00130405009384050013050400EFF09FEF32
:10020C00E30C05FEB717000093870780B3E4F400F6
:10021C00232094008320C100032481008324410007
:10022C00130101016780000083A7050003A74500A7
:10023C0013171700B3E7E70003A785001317470050
:10024C00B3E7E7002324F50083A7C5002320F502BC
:10025C0083A705012322F50283A745012324F50278
:10026C0083A785012326F50267800000130101FF97
:10027C002326110023248100130405003706B0F84F
:10028C00B755D208938505D013051000EFF05FE346
:10029C0013050400EFF01FE693070010E31AF5FEB8
:1002AC008320C10003248100130101016780000039
:1002BC00130101FF23261100EFF01FEE8320C10074
:1002CC001301010167800000130101FF23261100B7
:1002DC00EFF01FF18320C1001301010167800000C2
:1002EC00130101FD232611022324810213040500AE
:1002FC002322010023240100232601009307200060
:10030C002328F10013075000232AE100232CF100CD
:10031C0093077000232EF10093054100EFF0DFF0FE
:10032C0013050400EFF09FF48320C1020324810223
:10033C001301010367800000130101FF2326110044
:10034C0023248100232291001304050093840500CB
:10035C00EFF01FF99385040013050400EFF0DFF6AE
:10036C008320C10003248100832441001301010177
:10037C0067800000130101FF232611009305B00ACA
:10038C00EFF01FD93706B0F8B755D208938505D0D2
:10039C0013055000EFF0DFD28320C10013010101DF
:1003AC0067800000130101FF2326110093059002C2
:1003BC00EFF01FD68320C1001301010167800000FC
:1003CC00130101FF23261100232481002322910015
:1003DC001304050093840500EFF09FED1305040052
:1003EC00EFF05FF99385040013050400EFF0DFEDE7
:1003FC003706B0F8B755D208938505D01305800C95
:10040C00EFF01FCC9385040013050400EFF05FEAB6
:10041C0013050400EFF01FF9938504001305040085
:10042C00EFF09FEA13050400EFF05FE48320C100B6
:10043C000324810083244100130101016780000023
:10044C00130101FE232E1100232C8100232A91007D
:10045C00232821012326310113090500938405006B
:10046C0013040600938906009305B000EFF05FCAF1
:10047C0093D5040193F5F50F13050900EFF05FC94F
:10048C0093D5840093F5F50F13050900EFF05FC8C1
:10049C0093F5F40F13050900EFF09FC793050000C7
:1004AC0013050900EFF0DFC69304000063FE34016E
:1004BC0013050900EFF0DFC92300A4009384140096
:1004CC00130414006FF09FFE8320C10103248101EB
:1004DC0083244101032901018329C1001301010275
:1004EC0067800000130101FE232E1100232C8100D4
:1004FC00232A9100232821012326310123244101A1
:10050C001304050093840500130906009389060063
:10051C00130A0700EFF0DFD993060A0013860900CF
:10052C009305090013050400EFF09FF19385040077
:10053C0013050400EFF05FD98320C101032481016E
:10054C0083244101032901018329C100032A81006D
:10055C001301010267800000130101FF2326110023
:10056C003706B0F8B755D208938505D037450F003C
:10057C0013050524EFF0DFB493050000370503E8FD
:10058C00EFF09FDB93050000370503E8EFF05FE326
:10059C0037070001B716000037065000930500001E
:1005AC00370503E8EFF01FF437150000EFF01FA834
:1005BC00B7170000E78007008320C1001301010179
:1005CC0067800000130101FE232E110093078000A9
:1005DC002320F10023220100232401009307F009BA
:1005EC002326F10093050100370501E8EFF05FAA1F
:1005FC008320C1011301010267800000130101FF78
:10060C0023261100EFF01FFCEFF01FF58320C10033
:10061C001301010167800000130101FF23248100F5
:10062C00232021011384018113890181330989401D
:10063C00232611002322910013592940630E09002F
:10064C0093040000832704009384140013044400D3
:10065C00E7800700E31899FE138401811389018157
:10066C003309894013592940630E09009304000093
:10067C00832704009384140013044400E7800700CC
:10068C00E31899FE8320C1000324810083244100D8
:0C069C0003290100130101016780000028
:0A06A8000000000000000000000048
:04000005F9000000FE
:00000001FF
